:100000000C9434000C9451000C9451000C94510049
:100010000C9451000C9451000C9451000C9451001C
:100020000C9451000C9451000C9451000C9451000C
:100030000C9451000C9451000C9451000C945100FC
:100040000C945F030C9451000C9451000C945100DB
:100050000C9451000C9451000C9451000C945100DC
:100060000C9451000C94510011241FBECFEFD8E026
:10007000DEBFCDBF11E0A0E0B1E0E8E2F9E102C0EF
:1000800005900D92A632B107D9F721E0A6E2B1E0C2
:1000900001C01D92A735B207E1F70E94E3020C945C
:1000A000920C0C9400004298439858985998289ABA
:1000B0002A9A2B9A299A08953A9A3B9A509A519AD9
:1000C000209A229A239A219A0E945300089580919F
:1000D0002A018F5F80932A01813159F510922A01FC
:1000E0000E94530080912B01882339F080912901CF
:1000F0008F5F8093290180FF1CC0809128018F5F52
:1001000080932801843018F01092280102C08111D8
:1001100001C0429A80912801813009F4439A80916C
:100120002801823009F4589A80912801833009F41B
:10013000599A809126019091270101969093270169
:10014000809326018D34924058F0809106018231CF
:1001500018F48F5F809306011092270110922601F8
:1001600090912A0180910601981758F0E09128019A
:10017000F0E0E55FFE4FE081F0E0E15FFE4F80815F
:100180000AC0E0912801F0E0E95FFE4FE081F0E075
:10019000E15FFE4F808180FD02C0289801C0289A4F
:1001A00081FD02C02A9801C02A9A82FD02C02B98C4
:1001B00001C02B9A83FD02C029980895299A0895B9
:1001C00080932B010895CF92DF92EF92FF92E7E0A8
:1001D000F1E0C080D180E280F380C0920B01D09228
:1001E0000C01E0920D01F0920E0180836183428345
:1001F000238310920601FF90EF90DF90CF90089537
:1002000091E190930601E7E0F1E08083618342830E
:10021000238308950F931F93CF93DF930E9453007E
:10022000429A0FE011E0C9E1D1E0F801819180FD2F
:1002300002C0289801C0289A81FD02C02A9801C0F6
:100240002A9A82FD02C02B9801C02B9A83FD02C01E
:10025000299801C0299A2FE789EA93E0215080402C
:100260009040E1F700C00000CE17DF07F9F60E94CA
:100270005300439AEFE0F1E0819180FD02C028989D
:1002800001C0289A81FD02C02A9801C02A9A82FDE5
:1002900002C02B9801C02B9A83FD02C0299801C08F
:1002A000299A2FE789EA93E0215080409040E1F7B6
:1002B00000C00000CE17DF07F9F60E945300589ADD
:1002C000EFE0F1E0819180FD02C0289801C0289AFA
:1002D00081FD02C02A9801C02A9A82FD02C02B9893
:1002E00001C02B9A83FD02C0299801C0299A2FE7EB
:1002F00089EA93E0215080409040E1F700C000007F
:10030000CE17DF07F9F60E945300599AF801819140
:100310008F0180FD02C0289801C0289A81FD02C08B
:100320002A9801C02A9A82FD02C02B9801C02B9AFC
:1003300083FD02C0299801C0299AFFE729EA83E0DA
:10034000F15020408040E1F700C000000C171D076D
:10035000E9F60E945300DF91CF911F910F9108950C
:100360000F931F93CF93DF9300D000D0CDB7DEB7AC
:100370008C0119821A821B821C820E940F0241E0AA
:1003800050E0BE016C5F7F4F80ED0E94600243E051
:1003900050E0BE016F5F7F4F81ED0E948E02898128
:1003A000F80180838A8181838B8182830F900F90F3
:1003B0000F900F90DF91CF911F910F910895CF93E0
:1003C000DF9300D000D000D0CDB7DEB7FC0119829A
:1003D00080818A8381818B8382818C830E940F023A
:1003E00044E050E0BE016F5F7F4F80ED0E946002ED
:1003F0008EE08D838CE18E830E940F0242E050E0FC
:10040000BE016B5F7F4F80ED0E94600226960FB6A3
:10041000F894DEBF0FBECDBFDF91CF91089588E87D
:100420008093B8000895ECEBF0E0108294EA90839A
:1004300090819923ECF79091B900987F9830A1F4BE
:100440008093BB0084E88093BC00ECEBF0E08081FB
:100450008823ECF79091B900987F983139F081E0CA
:10046000903429F480E0089581E0089580E00895B3
:100470008093BB0084E88093BC00ECEBF0E08081CB
:100480008823ECF79091B900987F81E0983209F4C5
:1004900080E0089584EC8093BC00ECEBF0E0808178
:1004A0008823ECF78091BB00089584E88093BC001A
:1004B000ECEBF0E080818823ECF78091BB0008959D
:1004C000CF92DF92FF920F931F93CF93DF936B0135
:1004D0008A010E941302F82E811112C00115110524
:1004E00059F0E6010C0D1D1D89910E943802811101
:1004F0000AC00C171D07C1F784E98093BC0005C032
:10050000FF24F39402C0FF24F3948F2DDF91CF9149
:100510001F910F91FF90DF90CF900895BF92CF92DF
:10052000DF92EF92FF920F931F93CF93DF936B01B4
:100530007A0181600E941302B82E81111DC081E0F2
:10054000E816F10461F0E6018701015011090C0D74
:100550001D1D0E944A0289930C171D07D1F781E0E7
:10056000E81AF108E601CE0DDF1D0E9455028883CE
:1005700084E98093BC0002C0BB24B3948B2DDF912F
:10058000CF911F910F91FF90EF90DF90CF90BF9090
:1005900008950E941B0B80931A01809148018130BD
:1005A00019F40E9495080895811103C00E947A05EC
:1005B0000895823019F40E949A070895843011F446
:1005C0000E946206089582E19AE790934701809322
:1005D000460114BEA8950FB6F894A89580916000C6
:1005E000886180936000109260000FBE0E945C00E2
:1005F00085B5816085BDEEE6F0E080818160808315
:100600000E940F020E940A010E94240B21E044E490
:100610005BE06BE27BE089EC92E00E94F40A90934D
:1006200033018093320178941092480180914801FF
:1006300081110EC00E94CE0380914801811106C035
:100640000E945F04809148018823D1F30E946E05C7
:1006500080914801813071F40E94B5078091480172
:10066000813031F40E94C407809148018130D1F378
:100670000E94890880914801823071F40E947D06B1
:1006800080914801823031F40E94BF068091480178
:100690008230D1F30E948D0780914801843031F679
:1006A0000E94BA0580914801843031F40E94D2053D
:1006B000809148018430D1F30E945B06B7CF1F922E
:1006C0000F920FB60F9211242F933F934F935F9386
:1006D0006F937F938F939F93AF93BF93EF93FF930A
:1006E0008091300190913101019690933101809376
:1006F0003001039731F40E9467001092310110928B
:10070000300180912E0190912F01019690932F013D
:1007100080932E0120914601309147018217930763
:1007200079F410922F0110922E0180914B0190913B
:100730004C01019690934C0180934B010E94420919
:1007400080912C0190912D01019684332CE0920729
:1007500029F090932D0180932C010DC010922D0152
:1007600010922C018091490190914A010196909339
:100770004A01809349010E94330BFF91EF91BF9191
:10078000AF919F918F917F916F915F914F913F9129
:100790002F910F900FBE0F901F9018951F93CF931E
:1007A000DF930E94B0080E944F09CDEC8C9FD12DA1
:1007B0001124D695D695D695DD0F9D2F990F990FBB
:1007C000D90F8D1BD82F0E944F098C9F112D1124FA
:1007D0001695169516950E9452098C9FC12D1124CD
:1007E000C695C695C695CC0F9C2F990F990FC90F2A
:1007F0008C1BC82F0E9452098A3050F00E94520967
:100800009DEC899F812D112486958695869501C042
:100810008AE02D2F412F6C2F0E94E30082E090E0B0
:100820000E946A0C80934F0181E090E00E946A0C64
:1008300080934D0180E090E00E946A0C80934E010D
:1008400099E288E10FB6F894A895809360000FBEF6
:1008500090936000A895DF91CF911F9108958091AA
:100860004D0190E020914F01821B9109A2F00E945E
:10087000520990914F01891750F00E9452099091AE
:100880004D01891720F481E00E94E000089580E086
:100890000E94E00008950E94520990914D0189172D
:1008A00050F00E94520990914F01891720F480E086
:1008B0000E94E000089581E00E94E0000895FF9208
:1008C0000F931F93CF93DF9380914B0190914C0135
:1008D0002091340130913501821B930B069708F467
:1008E000E9C0A89580914B0190914C0190933501FE
:1008F0008093340180914E018823E1F10E944F09D9
:10090000CDEC8C9FD12D1124D695D695D695DD0FA3
:100910009D2F990F990FD90F8D1BD82F0E944F092A
:100920008C9F112D11241695169516950E9452092B
:100930008C9FC12D1124C695C695C695CC0F9C2FB2
:10094000990F990FC90F8C1BC82F0E9452098A302A
:1009500050F00E9452099DEC899F812D11248695AB
:100960008695869501C08AE02D2F412F6C2F0E941D
:10097000E3003BC00E944F09CDEC8C9FD12D112488
:10098000D695D695D695DD0F9D2F990F990FD90F36
:100990008D1BD82F0E944F098C9F112D1124169565
:1009A000169516950E9452098C9FC12D1124C6954B
:1009B000C695C695CC0F9C2F990F990FC90F8C1B0C
:1009C000C82F0E9452098A3050F00E9452099DECB3
:1009D000899F812D112486958695869501C08AE090
:1009E0002D2F412F6C2F0E9400010E945209C82F09
:1009F0000E944F09D82F0E945509082F80911C0191
:100A0000C81711F0D43149F080911B01C81709F4BF
:100A10004FC0D23309F04CC003C0C0931C0102C0C8
:100A2000C0931B010E94B0080E945209F82E0E9438
:100A30004F09182F0E945509CF1539F082E19AE726
:100A4000909347018093460133C0412F110F550BFE
:100A50004D1B5109D7FD53959CE3949F9001959FA1
:100A6000300D1124082E000C990B801B910907FDF5
:100A70009395280F391F6EEE6203A001639F500DFE
:100A800011248091460190914701840F951F9C018C
:100A900020523E4421323E4428F4909347018093F3
:100AA000460106C082E19AE7909347018093460190
:100AB0000E942F0480914B0190914C0120913601AE
:100AC00030913701821B930B069710F0109238017A
:100AD000DF91CF911F910F91FF9008950FB6F89479
:100AE000A8958091600088618093600010926000FA
:100AF0000FBE089580913201909133010E941E0B28
:100B0000811131C080914B0190914C01909337013C
:100B10008093360180911A01893041F48091380127
:100B2000823049F08F5F809338011DC09091380169
:100B30009230B9F406C01092380181E080934801E8
:100B400012C0883031F41092380182E0809348015D
:100B50000AC0873031F41092380184E08093480154
:100B600002C01092380180913201909133010E94AD
:100B7000210B089580914B0190914C0190933D0180
:100B800080933C0180E090E00E946A0C80934E01CB
:100B90002AE04AE06AE08AE00E94E30080E00E94E6
:100BA000E0000895CF9380914B0190914C012091EA
:100BB000390130913A01821B930B029708F447C028
:100BC00080914B0190914C0190933A0180933901AF
:100BD00080914E018823F1F00E945509C82F0E9490
:100BE00055094DECC49F912D112496959695969597
:100BF000990F292F220F220F920F2C2F291B849F30
:100C0000412D11244695469546956AE08AE00E945A
:100C1000E3001DC00E945509C82F0E9455094DECE4
:100C2000C49F912D1124969596959695990F292FED
:100C3000220F220F920F2C2F291B849F412D11244C
:100C40004695469546956AE08AE00E9400018091AB
:100C50003B018823D1F010923B0180914B01909190
:100C60004C0190933D0180933C0180911A018111C8
:100C700003C010924E0109C0813019F480934E01D7
:100C800004C0823011F41092480180913201909199
:100C900033010E94210B80914B0190914C012091D6
:100CA0003C0130913D01821B930B0B9710F0109289
:100CB0004801CF91089560914E0180E090E00E943C
:100CC000840C089580913201909133010E941E0B93
:100CD000811104C081E080933B0106C08091320104
:100CE000909133010E94210B80914B0190914C0116
:100CF00090933D0180933C010895CF9382E090E072
:100D00000E946A0CC82F80934F0181E090E00E94FE
:100D10006A0C80934D019DEC899F412D11244695CD
:100D200046954695342F330F232F220F220F230F82
:100D3000821B282FC99F812D112486958695869523
:100D4000382F330F932F990F990F930F6C2F691B27
:100D50000E940001109241018AE08093200180935B
:100D60001F0180931E0180931D0180914B01909182
:100D70004C0190933F0180933E01CF910895809163
:100D80004B0190914C0120913E0130913F01821B1B
:100D9000930B0B9718F01092480108958091400131
:100DA000882309F4B9C0109240018091410181115A
:100DB0001FC080911A01833030F48093200181E0BC
:100DC000809341018DC08A3008F08AC020911D01B6
:100DD00040911E0160911F010E9400012FEF80E7EA
:100DE00092E0215080409040E1F700C0000078C0C0
:100DF000813061F580912001823028F490911A01B0
:100E00009A3038F081C0823061F490911A019430A8
:100E100040F480911A0180931F0182E08093410188
:100E20005FC060911A016A3008F05AC020911D011C
:100E300040911E010E9400012FEF80E792E02150B7
:100E400080409040E1F700C000004AC08230F1F4D9
:100E500040911A01433030F440931E0183E08093A7
:100E600041013EC04A30E0F520911D0160911F0113
:100E7000809120010E9400012FEF80E792E0215035
:100E800080409040E1F700C000002AC0833041F567
:100E900080911E01823020F490911A019A3030F036
:100EA0008230F1F490911A019430D0F490911A01AB
:100EB00090931D0120912001220F322F330F330F09
:100EC000230F30911F01230F20934F01880F282FEC
:100ED000220F220F820F980F90934D01109248011C
:100EE0008FEF80931A0120911D0140911E016091A6
:100EF0001F01809120010E94000180913201909198
:100F000033010E94210B0895823051F780911A011C
:100F1000843008F47ECFE4CF089560914F0182E0E1
:100F200090E00E94720C60914D0181E090E00E947F
:100F3000720C089580913201909133010E941E0B32
:100F4000811104C081E08093400106C0809132018C
:100F5000909133010E94210B80914B0190914C01A3
:100F600090933F0180933E0108952AE04AE06AE0B1
:100F70008AE00E94000180914B0190914C01909376
:100F8000430180934201089580914B0190914C015F
:100F90002091420130914301821B930B0B9718F073
:100FA00010924801089580914401882309F4B0C04B
:100FB000109244018091450181111FC080911A0156
:100FC000833030F48093240181E08093450184C014
:100FD0008A3008F081C02091210140912201609166
:100FE00023010E9400012FEF80E792E02150804012
:100FF0009040E1F700C000006FC0813061F5809142
:101000002401823028F490911A019A3038F078C087
:10101000823061F490911A01943040F480911A0169
:101020008093230182E08093450156C060911A01AC
:101030006A3008F051C020912101409122010E94A4
:1010400000012FEF80E792E0215080409040E1F7CF
:1010500000C0000041C08230F1F440911A014630D6
:1010600030F44093220183E08093450135C04A303B
:1010700098F52091210160912301809124010E9423
:1010800000012FEF80E792E0215080409040E1F78F
:1010900000C0000021C08330F9F480911A018A3029
:1010A000D8F4809321011092480190912201990F68
:1010B000692F660F660F690F680F80912401880FF2
:1010C000982F990F990F890F9091230140E0890F74
:1010D0000E9458090E94E6088FEF80931A01209120
:1010E00021014091220160912301809124010E94FD
:1010F000000180913201909133010E94210B0895EB
:10110000823051F780911A01843008F487CFE4CF00
:1011100008958AE080932401809323018093220123
:1011200080932101109245010895809132019091A0
:1011300033010E941E0B811104C081E080934401A1
:1011400006C080913201909133010E94210B809161
:101150004B0190914C01909343018093420108957B
:10116000CF93DF9300D01F92CDB7DEB7CE010196AB
:101170000E94B0018981982F92959F70990F292F15
:10118000220F220F920F8F70890FE0E5F1E080832C
:101190008A81982F92959F70990F292F220F220FE5
:1011A000920F8F70890F81838B81982F92959F70FA
:1011B000990F292F220F220F920F8F70890F828390
:1011C0000F900F900F90DF91CF910895CF93DF9301
:1011D00000D01F92CDB7DEB71982E0E5F1E0918132
:1011E000218187E69802312D11243595359597FD9B
:1011F00033952802912D11249595959527FD93956A
:10120000990F492F440F440F940F291B90E1399FE8
:10121000200D11242A83328192813802212D11243C
:101220002595259537FD23959802812D11248595C7
:10123000859597FD8395880F382F330F330F830FD4
:10124000981B80E1289F900D11249B83CE0101966D
:101250000E94DF010F900F900F90DF91CF910895C2
:10126000E0E5F1E081818F5F818381818C334CF0F7
:10127000118282818F5F82838281883114F0109283
:1012800052010895E0E5F1E080818F5F80838081E5
:101290008C3324F0109250010E94300908958091FF
:1012A000510108958091520108958091500108954F
:1012B0004C3310F4409350016C3310F4609351019F
:1012C000883110F4809352010895FC01148616822F
:1012D00017821082138208950F931F93CF93DF9389
:1012E000EC01EB89FC8909952D853E858C01021B5B
:1012F000130BEB89FC8909959E878D878C8581115D
:1013000011C0C8018B5C98408F3A944040F4E98941
:10131000FA890995882319F081E08C8760C1CE0194
:101320000E9465098C85813089F4C8018F5E9240E6
:101330008F38914040F4E989FA890995811103C0F9
:1013400082E08C874CC1CE010E9465098C85823079
:1013500089F4C801815491408D30914040F4E9896D
:10136000FA890995882319F083E08C8738C1CE016A
:101370000E9465098C85833089F4C8018F5E924094
:101380008F38914040F4E989FA890995811103C0A9
:1013900084E08C8724C1CE010E9465098C8584304D
:1013A00089F4C801815491408D30914040F4E9891D
:1013B000FA890995882319F085E08C8710C1CE0140
:1013C0000E9465098C85853089F4C801815491405B
:1013D0008D30914040F4E989FA890995811103C063
:1013E00086E08C87FCC0CE010E9465098C85863022
:1013F00089F4C801815491408D30914040F4E989CD
:10140000FA890995882319F087E08C87E8C0CE0116
:101410000E9465098C85873089F4C8018154914008
:101420008D30914040F4E989FA890995811103C012
:1014300088E08C87D4C0CE010E9465098C858830F5
:1014400011F5C801815491408D30914048F4E989EB
:10145000FA890995882321F089E08C871886BFC016
:10146000C8018F5294408D39924050F4E989FA892D
:101470000995882329F08AE08C8781E08887AFC0AE
:10148000CE010E9465098C85893089F4C8018F5E80
:1014900092408F38914040F4E989FA890995811189
:1014A00003C08AE08C879BC0CE010E9465098C85B1
:1014B0008A30C9F4C8018F5E92408F38914018F489
:1014C0008BE08C878CC0C8018F5294408D3992403C
:1014D00038F48CE08C8781E08E830FEE12E01FC021
:1014E000CE010E9465098C858B30A9F4C801815416
:1014F00091408D30914038F48CE08C8781E08E8370
:101500000FEE12E017C0CE010E9465098C858C3069
:1015100009F065C00FC08C858C3009F060C0C8012F
:10152000815491408D30914028F49E8181E089273B
:101530008E8308C00F5E12400F38114018F0CE01A4
:101540000E9465098E81882329F18F818830A0F05F
:101550008881880F8883E989FA890995882319F099
:1015600088818F5F88838F818F5F8F838E818823AF
:1015700089F08F81883070F48B81880F8B83E989A3
:10158000FA890995882319F08B818F5F8B838F816E
:101590008F5F8F838F81803111F58A85882319F0C1
:1015A0009B85911119C098819A832B812C83288562
:1015B0003985231306C03981931303C031E03D837D
:1015C00001C01D82882311F081E08B8799832987D0
:1015D000EF85F889CE010995CE010E946509DF915A
:1015E000CF911F910F910895AF92BF92CF92DF924A
:1015F000EF92FF921F93CF93DF935C016B017A010F
:10160000122F85E190E00E94490BEC01B88AAF8669
:10161000DA8AC98AFC8AEB8A1A870E9465091B86C6
:10162000CE01DF91CF911F91FF90EF90DF90CF908F
:10163000BF90AF900895FC0182810895FC018581DF
:101640000895FC01138608955398E1E8F0E0808145
:1016500082608083089599B1987099B981E0911161
:1016600001C080E008950E942B0B909125018917FD
:1016700051F080913201909133010E946C090E94D7
:101680002B0B809325010895809184009091850013
:1016900008950F931F93CF93DF938230910510F439
:1016A00082E090E0E0915501F091560120E030E0B9
:1016B000A0E0B0E0309719F140815181028113819F
:1016C00048175907C8F08417950769F4109731F047
:1016D00012960C93129713961C9327C000935501F2
:1016E0001093560122C02115310519F042175307F6
:1016F00018F49A01BD01EF01DF01F801DBCF2115DC
:101700003105F9F0281B390B2430310580F48A812A
:101710009B816115710521F0FB019383828304C0D5
:101720009093560180935501FE01329644C0FE010C
:10173000E20FF31F8193919322503109398328835B
:101740003AC02091530130915401232B41F4209150
:1017500002013091030130935401209353012091F1
:101760000001309101012115310541F42DB73EB73B
:101770004091040150910501241B350BE091530168
:10178000F0915401E217F307A0F42E1B3F0B28172A
:10179000390778F0AC014E5F5F4F2417350748F0EA
:1017A0004E0F5F1F509354014093530181939193C7
:1017B00002C0E0E0F0E0CF01DF91CF911F910F91E7
:1017C0000895CF93DF93009709F481C0FC0132970D
:1017D00013821282A0915501B0915601109781F4A5
:1017E00020813181820F931F209153013091540148
:1017F0002817390751F5F0935401E093530167C05E
:10180000ED0120E030E0CE17DF0740F44A815B8134
:101810009E0141155105F1F0EA01F5CFD383C28352
:1018200040815181840F951FC817D90759F48881C9
:101830009981840F951F0296918380838A819B8171
:10184000938382832115310529F4F0935601E093A7
:1018500055013DC0E901FB83EA8349915991C40FC9
:10186000D51FEC17FD0761F480819181840F951FCE
:101870000296E90199838883828193819B838A837D
:10188000E0E0F0E012968D919C911397009719F08B
:10189000FD01DC01F7CF8D919C9111979D012E5F89
:1018A0003F4F820F931F209153013091540128170D
:1018B000390769F4309729F41092560110925501B6
:1018C00002C013821282B0935401A0935301DF919E
:1018D000CF910895F999FECF92BD81BDF89A9927CD
:1018E00080B50895262FF999FECF92BD81BDF89A53
:1018F000019700B4021639F01FBA20BD0FB6F89454
:10190000FA9AF99A0FBE0895262FF999FECF1FBAB9
:1019100092BD81BD20BD0FB6F894FA9AF99A0FBE18
:0819200001960895F894FFCF31
:10192800000057012000110A0A0A0A0A0A0A0A05D1
:101938000406070302080900010CFF5A5A0A0A0A9A
:061948000A0A0A0A0A0166
:00000001FF
