:100000000C9434000C9451000C9451000C94510049
:100010000C9451000C9451000C9451000C9451001C
:100020000C9451000C9451000C9451000C9451000C
:100030000C9451000C9451000C9451000C945100FC
:100040000C94A4030C9451000C9451000C94510096
:100050000C9451000C9451000C9451000C945100DC
:100060000C9451000C94510011241FBECFEFD8E026
:10007000DEBFCDBF11E0A0E0B1E0EAE2F7E102C0EF
:1000800005900D92A831B107D9F721E0A8E1B1E0C0
:1000900001C01D92AB35B207E1F70E9422030C9418
:1000A000930B0C940000FC01718360832283148203
:1000B000138215821682FA01308181E090E002C03D
:1000C000880F991F2A95E2F78095832380830895EE
:1000D000FC01A081B1818C9190E0028002C09595D5
:1000E00087950A94E2F780FD16C023813481C90107
:1000F000019694838383029731F481E085832E5F98
:100100003F4F34832383838194818135910530F07F
:1001100081E0868308951482138216820895FC017B
:100120008581811115820895FC0186810895599871
:10013000589843984298289A2A9A2B9A299A08956F
:10014000519A509A3B9A3A9A209A229A239A219A43
:100150000E949700089580911C018F5F80931C017D
:10016000813159F510921C010E94970080911D0168
:10017000882339F080911B018F5F80931B0180FFE2
:100180001CC080911A018F5F80931A01843018F08F
:1001900010921A0102C0811101C0599A80911A016E
:1001A000813009F4589A80911A01823009F4439AF7
:1001B00080911A01833009F4429A8091180190913C
:1001C0001901019690931901809318018D34924082
:1001D00058F080910001823118F48F5F8093000104
:1001E000109219011092180190911C018091000148
:1001F000981758F0E0911A01F0E0EB5FFE4FE081B4
:10020000F0E0E75FFE4F80810AC0E0911A01F0E064
:10021000EF5FFE4FE081F0E0E75FFE4F808180FD01
:1002200002C0289801C0289A81FD02C02A9801C006
:100230002A9A82FD02C02B9801C02B9A83FD02C02E
:1002400029980895299A089580931D010895809111
:100250001D01882319F010921D01089581E08093FB
:100260001D010895CF92DF92EF92FF92E1E0F1E05D
:10027000C080D180E280F380C0920501D092060157
:10028000E0920701F0920801808361834283238317
:1002900010920001FF90EF90DF90CF90089591E1D0
:1002A00090930001E1E0F1E0808361834283238346
:1002B00008950F931F93CF93DF930E949700599A4D
:1002C00009E011E0C3E1D1E0F801819180FD02C0B5
:1002D000289801C0289A81FD02C02A9801C02A9A54
:1002E00082FD02C02B9801C02B9A83FD02C0299881
:1002F00001C0299A2FE789EA93E02150804090407D
:10030000E1F700C00000CE17DF07F9F60E94970062
:10031000589AE9E0F1E0819180FD02C0289801C07F
:10032000289A81FD02C02A9801C02A9A82FD02C043
:100330002B9801C02B9A83FD02C0299801C0299AED
:100340002FE789EA93E0215080409040E1F700C018
:100350000000CE17DF07F9F60E949700439AE9E004
:10036000F1E0819180FD02C0289801C0289A81FDAA
:1003700002C02A9801C02A9A82FD02C02B9801C0AF
:100380002B9A83FD02C0299801C0299A2FE789EA98
:1003900093E0215080409040E1F700C00000CE176C
:1003A000DF07F9F60E949700429AF80181918F01C8
:1003B00080FD02C0289801C0289A81FD02C02A98B9
:1003C00001C02A9A82FD02C02B9801C02B9A83FD9E
:1003D00002C0299801C0299AFFE729EA83E0F15079
:1003E00020408040E1F700C000000C171D07E9F62F
:1003F0000E949700DF91CF911F910F9108950F9365
:100400001F93CF93DF9300D000D0CDB7DEB78C0120
:1004100019821A821B821C820E945E0241E050E017
:10042000BE016C5F7F4F80ED0E94AF0243E050E061
:10043000BE016F5F7F4F81ED0E94DD028981F8016F
:1004400080838A8181838B8182830F900F900F90AC
:100450000F90DF91CF911F910F910895CF93DF936C
:1004600000D000D000D0CDB7DEB7FC01198280816A
:100470008A8381818B8382818C830E945E0244E027
:1004800050E0BE016F5F7F4F80ED0E94AF028EE0B3
:100490008D838CE18E830E945E0242E050E0BE01BB
:1004A0006B5F7F4F80ED0E94AF0226960FB6F894E7
:1004B000DEBF0FBECDBFDF91CF91089588E8809356
:1004C000B8000895ECEBF0E0108294EA90839081FC
:1004D0009923ECF79091B900987F9830A1F480931C
:1004E000BB0084E88093BC00ECEBF0E080818823C3
:1004F000ECF79091B900987F983139F081E0903411
:1005000029F480E0089581E0089580E008958093C3
:10051000BB0084E88093BC00ECEBF0E08081882392
:10052000ECF79091B900987F81E0983209F480E06F
:10053000089584EC8093BC00ECEBF0E0808188238C
:10054000ECF78091BB00089584E88093BC00ECEB4D
:10055000F0E080818823ECF78091BB000895CF9272
:10056000DF92FF920F931F93CF93DF936B018A016A
:100570000E946202F82E811112C00115110559F076
:10058000E6010C0D1D1D89910E94870281110AC090
:100590000C171D07C1F784E98093BC0005C0FF2438
:1005A000F39402C0FF24F3948F2DDF91CF911F911C
:1005B0000F91FF90DF90CF900895BF92CF92DF927E
:1005C000EF92FF920F931F93CF93DF936B017A010A
:1005D00081600E946202B82E81111DC081E0E81680
:1005E000F10461F0E6018701015011090C0D1D1D98
:1005F0000E94990289930C171D07D1F781E0E81A30
:10060000F108E601CE0DDF1D0E94A402888384E973
:100610008093BC0002C0BB24B3948B2DDF91CF919B
:100620001F910F91FF90EF90DF90CF90BF900895B2
:100630005D9A08955D9808955D9B02C05D98089548
:100640005D9A089514BEA8950FB6F894A895809168
:100650006000886180936000109260000FBE0E946D
:10066000A00085B5816085BDEEE6F0E08081816007
:10067000808327E044E250E063E270E08AE391E0A7
:100680000E94530023E04AE250E069E270E083E414
:1006900091E00E94530022E04AE250E069E270E0FB
:1006A0008CE491E00E9453000E945E020E94590176
:1006B0007894109239010E9433048091390181119C
:1006C00006C00E94FC04809139018823D1F30E9466
:1006D000F6060E946D09809139018150823038F40C
:1006E0000E946E098091390181508230C8F30E94C6
:1006F0009C0A0E94870780913901833031F40E945F
:10070000B607809139018330D1F30E946C080E94B2
:10071000790880913901843031F40E94A8088091D1
:1007200039018430D1F30E9460090E94060780914C
:100730003901853031F40E941607809139018530E6
:10074000D1F30E948007B7CF1F920F920FB60F927E
:1007500011242F933F934F935F936F937F938F93C6
:100760009F93AF93BF93EF93FF9380912401909158
:10077000250101969093250180932401039731F47C
:100780000E94AB0010922501109224018091220159
:10079000909123010196909323018093220120914F
:1007A0001401309115018217930798F010922301DC
:1007B0001092220180914A0190914B0101969093F1
:1007C0004B0180934A0180913901823011F00E94DF
:1007D0002F0B809120019091210101968A3126E012
:1007E000920729F090932101809320010DC010926F
:1007F00021011092200180914101909142010196C6
:10080000909342018093410180911E0190911F01BC
:100810000196883321E0920729F090931F0180937D
:100820001E0110C010921F0110921E0183E491E07E
:100830000E9468008CE491E00E9468008AE391E0E5
:100840000E946800FF91EF91BF91AF919F918F91AE
:100850007F916F915F914F913F912F910F900FBEBC
:100860000F901F9018951F93CF93DF930E949D0ABE
:100870000E94530BCDEC8C9FD12D1124D695D6958B
:10088000D695DD0F9D2F990F990FD90F8D1BD82F5E
:100890000E94530B8C9F112D1124169516951695B9
:1008A0000E94560B8C9FC12D1124C695C695C695E6
:1008B000CC0F9C2F990F990FC90F8C1BC82F0E942A
:1008C000560B8A3050F00E94560B9DEC899F812D6B
:1008D000112486958695869501C08AE02D2F412F9B
:1008E0006C2F0E94320184E090E00E946B0B809399
:1008F000560183E090E00E946B0B8093530182E0ED
:1009000090E00E946B0B8093570181E090E00E9481
:100910006B0B8093540180E090E00E946B0B8093FE
:10092000550199E288E10FB6F894A895809360008C
:100930000FBE90936000A895DF91CF911F9108950D
:100940008091540190E020915701821B910992F00F
:100950000E94560B90915701891748F00E94560B40
:1009600090915401891718F40E94180308950E9469
:100970001A0308950E94560B90915401891748F06C
:100980000E94560B90915701891718F40E941A0380
:1009900008950E94180308958091530190E02091DA
:1009A0005601821B9109A2F00E94560B90915601AC
:1009B000891750F00E94560B90915301891720F42B
:1009C00081E00E942401089580E00E94240108959E
:1009D0000E94560B90915301891750F00E94560BBC
:1009E00090915601891720F480E00E942401089517
:1009F00081E00E9424010895FF920F931F93CF93EB
:100A0000DF9380914A0190914B0120912601309112
:100A10002701821B930B069708F4EBC0A8958091E1
:100A20004A0190914B019093270180932601809178
:100A300055018823E1F10E94530BCDEC8C9FD12D01
:100A40001124D695D695D695DD0F9D2F990F990F28
:100A5000D90F8D1BD82F0E94530B8C9F112D112461
:100A60001695169516950E94560B8C9FC12D112434
:100A7000C695C695C695CC0F9C2F990F990FC90F97
:100A80008C1BC82F0E94560B8A3050F00E94560BC8
:100A90009DEC899F812D112486958695869501C0B0
:100AA0008AE02D2F412F6C2F0E9432013BC00E9403
:100AB000530BCDEC8C9FD12D1124D695D695D69580
:100AC000DD0F9D2F990F990FD90F8D1BD82F0E94E5
:100AD000530B8C9F112D11241695169516950E9477
:100AE000560B8C9FC12D1124C695C695C695CC0F6B
:100AF0009C2F990F990FC90F8C1BC82F0E94560B62
:100B00008A3050F00E94560B9DEC899F812D112454
:100B100086958695869501C08AE02D2F412F6C2FF2
:100B20000E944F010E94560BC82F0E94530BD82FD2
:100B30000E94590B082F80911701C81711F0D4316A
:100B400049F080911601C81709F44FC0D23309F05B
:100B50004CC003C0C093170102C0C09316010E948D
:100B60009D0A0E94560BF82E0E94530B182F0E94CC
:100B7000590BCF1539F082E19AE7909315018093D4
:100B8000140133C0412F110F550B4D1B5109D7FDD7
:100B900053959CE3949F9001959F300D1124082E4E
:100BA000000C990B801B910907FD9395280F391FA5
:100BB0006EEE6203A001639F500D11248091140119
:100BC00090911501840F951F9C0120523E442132C3
:100BD0003E4428F4909315018093140106C082E1ED
:100BE0009AE790931501809314010E94CC040E940F
:100BF000A00483E491E00E948F00811107C083E488
:100C000091E00E949400882309F495C080914A01E4
:100C100090914B0105979093270180932601E091D5
:100C20001401F09115019F0136952795369527956A
:100C3000ABE7B4E10E945C0B9695879544E6489F2C
:100C40009001499F300D1124CF01821B930B9C0111
:100C5000ADECBCEC0E945C0B8C01169507951695CB
:100C60000795169507959F013695279536952795F3
:100C700036952795A5ECB0E20E945C0B9295829583
:100C80008F7089279F70892748EE53E0849F9001D9
:100C9000859F300D949F300D1124CF01821B930B43
:100CA0009C013695279536952795ABE7B4E10E94D0
:100CB0005C0BAC0156954795EF01D295C295CF706C
:100CC000CD27DF70CD279E01A7E4B3E00E945C0B27
:100CD00096958795969587959695879560E177E2A5
:100CE000869F9001879F300D969F300D1124CF0174
:100CF000821B930B9C013695279536952795369543
:100D00002795A5ECB0E20E945C0BFC01F295E29500
:100D1000EF70EF27FF70EF279E01A7E4B3E00E947A
:100D20005C0B969587959695879596958795202F38
:100D30006E2F0E944F018CE491E00E949400882362
:100D400009F445C080914A0190914B01909327018D
:100D5000809326010E94590B182F0E94590BC82F0F
:100D60000E94530BD82F0E94530B3DEC139F912DE3
:100D70001124969596959695990F292F220F220F5B
:100D8000920F212F291BC39F412D11244695469573
:100D90004695D39F912D1124969596959695990FEA
:100DA000592F550F550F950F6D2F691B839F812D5F
:100DB00011248695869586950E944F0180914A015F
:100DC00090914B01099790932701809326018AE324
:100DD00091E00E948F00882319F081E0809339010F
:100DE000DF91CF911F910F91FF9008950FB6F89466
:100DF000A8958091600088618093600010926000E7
:100E00000FBE8CE491E00E948F00089580E090E096
:100E10000E946B0B809355012AE04AE06AE08AE069
:100E20000E94320180E00E942401089580914A01CD
:100E300090914B012091290130912A01821B930B43
:100E4000039708F43FC080914A0190914B01909321
:100E50002A0180932901809128018F5F843618F43C
:100E60008093280102C010922801809155018823A7
:100E7000A9F0209128014DEC249F412D1124469585
:100E800046954695942F990F892F880F880F890FC3
:100E9000281B6AE08AE00E94320114C020912801D8
:100EA0004DEC249F412D1124469546954695942F4F
:100EB000990F892F880F880F890F281B6AE08AE015
:100EC0000E944F0183E491E00E948F00811106C0CF
:100ED0008CE491E00E948F00882351F080915501AD
:100EE000882319F01092550103C081E080935501C9
:100EF0008AE391E00E948F008111109239010895D8
:100F00006091550180E090E00E94850B0895CF9399
:100F100084E090E00E946B0BC82F8093560183E021
:100F200090E00E946B0B809353019DEC899F412DB3
:100F30001124469546954695342F330F232F220FC3
:100F4000220F230F821B282FC99F812D11248695E4
:100F500086958695382F330F932F990F990F930FFE
:100F60006C2F691B0E944F01CF9108958091410120
:100F70009091420120912D0130912E01821B930B03
:100F8000069760F0809141019091420190932E016B
:100F900080932D0181E090E00E9427018CE491E094
:100FA0000E948F00811106C08CE491E00E949400A1
:100FB0008823F1F1809141019091420120912B0110
:100FC00030912C012817390799F1809153018F5FD7
:100FD000883118F48093530102C01092530120917C
:100FE0005301609156018DEC289F412D11244695A7
:100FF00046954695342F330F932F990F990F930FE2
:10100000291B689F812D1124869586958695382FFA
:10101000330F932F990F990F930F691B0E944F0164
:10102000809141019091420190932C0180932B017A
:1010300083E491E00E948F00811106C083E491E077
:101040000E9494008823F1F1809141019091420126
:1010500020912B0130912C012817390799F18091AB
:1010600056018F5F883118F48093560102C01092A8
:10107000560120915301609156018DEC289F412D1E
:101080001124469546954695342F330F932F990F8B
:10109000990F930F291B689F812D112486958695A2
:1010A0008695382F330F932F990F990F930F691B44
:1010B0000E944F01809141019091420190932C0137
:1010C00080932B018AE391E00E948F00882319F01E
:1010D00084E08093390108956091560184E090E0A6
:1010E0000E94730B6091530183E090E00E94730BA8
:1010F0000895CF9382E090E00E946B0BC82F8093FD
:10110000570181E090E00E946B0B809354019DECAD
:10111000899F412D1124469546954695342F330FCE
:10112000232F220F220F230F821B282FC99F812DCF
:101130001124869586958695382F330F932F990F16
:10114000990F930F6C2F691B0E944F01CF91089547
:101150008091410190914201209131013091320101
:10116000821B930B069770F0809141019091420190
:10117000909332018093310181E090E00E94270139
:101180000E941C038CE491E00E948F00811106C034
:101190008CE491E00E9494008823F1F18091410158
:1011A0009091420120912F01309130012817390789
:1011B00099F1809154018F5F883118F48093540124
:1011C00002C01092540120915401609157018DEC9E
:1011D000289F412D1124469546954695342F330F6F
:1011E000932F990F990F930F291B689F812D11241D
:1011F000869586958695382F330F932F990F990FE3
:10120000930F691B0E944F0180914101909142010F
:101210009093300180932F0183E491E00E948F002E
:10122000811106C083E491E00E9494008823F1F1CB
:10123000809141019091420120912F013091300124
:101240002817390799F1809157018F5F883118F479
:101250008093570102C01092570120915401609170
:1012600057018DEC289F412D1124469546954695B2
:10127000342F330F932F990F990F930F291B689FCA
:10128000812D1124869586958695382F330F932FBF
:10129000990F990F930F691B0E944F018091410193
:1012A000909142019093300180932F018AE391E065
:1012B0000E948F00882319F085E0809339010895FA
:1012C0006091570182E090E00E94730B609154019D
:1012D00081E090E00E94730B089508951F93CF93CF
:1012E000DF9380914101909142012091370130912B
:1012F0003801821B930B069760F080914101909119
:101300004201909338018093370181E090E00E9480
:10131000270180914A0190914B0120913501309134
:101320003601821B930B0B97E0F180914A0190915B
:101330004B0190933601809335010E94530B182F77
:101340000E94530BC82F0E94560BD82F0E94560B99
:101350003DEC139F912D1124969596959695990F96
:10136000292F220F220F920F212F291BC39F412DBE
:101370001124469546954695D39F912D1124969517
:1013800096959695990F592F550F550F950F6D2FCF
:10139000691B839F812D11248695869586950E94D1
:1013A00032018CE491E00E948F00811107C08CE42F
:1013B00091E00E949400882309F44FC0809141017C
:1013C000909142012091330130913401281739075F
:1013D00009F443C082E0809339010E94500B0E94BF
:1013E0003C0B0E94530B182F0E94530BC82F0E94D6
:1013F000560BD82F0E94560B3DEC139F912D1124B4
:10140000969596959695990F292F220F220F920F58
:10141000212F291BC39F412D1124469546954695A2
:10142000D39F912D1124969596959695990F592FA6
:10143000550F550F950F6D2F691B839F812D11241B
:101440008695869586950E944F01809141019091E5
:101450004201909334018093330183E491E00E9430
:101460008F00811107C083E491E00E9494008823DB
:1014700009F44FC0809141019091420120913301C4
:10148000309134012817390709F443C082E0809372
:1014900039010E94500B0E941D0B0E94530B182F04
:1014A0000E94530BC82F0E94560BD82F0E94560B38
:1014B0003DEC139F912D1124969596959695990F35
:1014C000292F220F220F920F212F291BC39F412D5D
:1014D0001124469546954695D39F912D11249695B6
:1014E00096959695990F592F550F550F950F6D2F6E
:1014F000691B839F812D11248695869586950E9470
:101500004F01809141019091420190933401809369
:1015100033018AE391E00E948F00882349F0809193
:101520003901823011F40E94D30A83E0809339019B
:10153000DF91CF911F9108950895CF93DF9300D04D
:101540001F92CDB7DEB7CE0101960E94FF018981BF
:10155000982F92959F70990F292F220F220F920F8B
:101560008F70890FE8E5F1E080838A81982F92954A
:101570009F70990F292F220F220F920F8F70890FC2
:1015800081838B81982F92959F70990F292F220F1D
:10159000220F920F8F70890F82830F900F900F9000
:1015A000DF91CF910895CF93DF9300D01F92CDB7F5
:1015B000DEB71982E8E5F1E09181218187E69802A2
:1015C000312D11243595359597FD33952802912DB0
:1015D00011249595959527FD9395990F492F440FC3
:1015E000440F940F291B90E1399F200D11242A8369
:1015F000328192813802212D11242595259537FDC0
:1016000023959802812D11248595859597FD8395C5
:10161000880F382F330F330F830F981B80E1289FDB
:10162000900D11249B83CE0101960E942E020F90F3
:101630000F900F90DF91CF910895E8E5F1E081815F
:101640008F5F818381818C334CF0118282818F5F27
:1016500082838281883114F010925A010895E8E55E
:10166000F1E080818F5F808380818C3324F0109241
:1016700058010E941D0B0895E8E5F1E08181815039
:101680008183818188235CF48BE381838281815013
:101690008283828188231CF487E180935A01089514
:1016A00010925801089580915901089580915A012E
:1016B0000895809158010895A29FB001B39FC00181
:1016C000A39F700D811D1124911DB29F700D811D6E
:1016D0001124911D0895F999FECF92BD81BDF89A0C
:1016E000992780B50895262FF999FECF92BD81BD27
:1016F000F89A019700B4021639F01FBA20BD0FB650
:10170000F894FA9AF99A0FBE0895262FF999FECF08
:101710001FBA92BD81BD20BD0FB6F894FA9AF99A0E
:0A1720000FBE01960895F894FFCF64
:10172A00110A0A0A0A0A0A0A0A0406070302080927
:08173A000001050C127A5A5A55
:00000001FF
